:100000000C9434000C9451000C9451000C94510049
:100010000C9451000C9451000C9451000C9451001C
:100020000C9451000C9451000C9451000C9451000C
:100030000C9451000C9451000C9451000C945100FC
:100040000C9451000C9451000C945C000C945100E1
:100050000C9451000C9451000C9451000C945100DC
:100060000C9451000C94510011241FBECFEFD8E026
:10007000DEBFCDBF11E0A0E0B1E0E2E2F8E002C0F7
:1000800005900D92A233B107D9F721E0A2E3B1E0C8
:1000900001C01D92A334B207E1F70E9453000C94F3
:1000A0000F040C9400000E94E2008091C10080685F
:1000B0008093C1007894FFCF1F920F920FB60F92DA
:1000C0001124EF92FF920F931F932F933F934F931F
:1000D0005F936F937F938F939F93AF93BF93EF93B0
:1000E000FF93CF93DF93CDB7DEB76E97DEBFCDBF63
:1000F00095B180E2892785B90E94F500182F8D30CF
:1001000039F008F442C080ED810F8A3068F13DC0BB
:10011000809132018823C9F180E091E00E940301BF
:1001200083E091E00E94030103E311E01F930F932A
:100130008EE091E09F938F93CE0101967C019F9377
:100140008F930E943701C7010E94030180E1F801EB
:1001500011928A95E9F7109232010F900F900F904B
:100160000F900F900F9011C0809132018F3068F482
:10017000812F0E94FC00E091320181E08E0F80937C
:100180003201F0E0ED5CFE4F10836E960FB6F894EE
:10019000DEBF0FBECDBFDF91CF91FF91EF91BF9139
:1001A000AF919F918F917F916F915F914F913F910F
:1001B0002F911F910F91FF90EF900F900FBE0F9016
:1001C0001F901895519A50981092C50087E6809319
:1001D000C400E1ECF0E080818860808380818061F0
:1001E000808386E08093C20008958091C00087FFDD
:1001F000FCCF8091C60008959091C00095FFFCCF80
:100200008093C6000895CF93DF93EC0189918823F2
:1002100019F00E94FC00FACFDF91CF910895FF9270
:100220000F931F93CF93DF93CDB7DEB72B970FB606
:10023000F894DEBF0FBECDBF8E010F5F1F4FF02EB3
:10024000912F9B870E94F500F80181938F019B8578
:100250008A30B9F78F2D2B960FB6F894DEBF0FBEFC
:10026000CDBFDF91CF911F910F91FF900895AEE028
:10027000B0E0EDE3F1E00C94E6030D891E8986E021
:100280008C831A8309838FEF9FE79E838D83AE0152
:10029000475E5F4F6F89788DCE0101960E945A01AB
:1002A0002F813885F801E20FF31F10822E96E4E0CB
:1002B0000C940204ACE0B0E0E0E6F1E00C94D8036A
:1002C0007C016B018A01FC0117821682838181FF08
:1002D000BDC1CE0101964C01F7019381F60193FD5A
:1002E000859193FF81916F01882309F4ABC1853219
:1002F00039F493FD859193FF81916F01853229F443
:10030000B70190E00E944203E7CF512C312C20E04E
:100310002032A0F48B3269F030F4803259F083320D
:1003200069F420612CC08D3239F0803339F42160BA
:1003300026C02260246023C0286021C027FD27C07A
:1003400030ED380F3A3078F426FF06C0FAE05F9EB1
:10035000300D1124532E13C08AE0389E300D112425
:10036000332E20620CC08E3221F426FD6BC1206436
:1003700006C08C3611F4206802C0883641F4F601BC
:1003800093FD859193FF81916F018111C1CF982FCA
:100390009F7D9554933028F40C5F1F4FFFE3F98342
:1003A0000DC0833631F0833771F0833509F05BC0BF
:1003B00022C0F801808189830E5F1F4F442443943B
:1003C000512C540115C03801F2E06F0E711CF80178
:1003D000A080B18026FF03C0652D70E002C06FEFE2
:1003E0007FEFC5012C870E9437032C0183012C85E8
:1003F0002F77222E17C03801F2E06F0E711CF80122
:10040000A080B18026FF03C0652D70E002C06FEFB1
:100410007FEFC5012C870E942C032C012C852068BE
:10042000222E830123FC1BC0832D90E04816590621
:10043000B0F4B70180E290E00E9442033A94F4CF16
:10044000F50127FC859127FE81915F01B70190E0BE
:100450000E94420331103A94F1E04F1A51084114BE
:10046000510471F7E5C0843611F0893639F5F80189
:1004700027FF07C060817181828193810C5F1F4FCC
:1004800008C060817181072E000C880B990B0E5FEC
:100490001F4F2F76722E97FF09C09095809570950B
:1004A00061957F4F8F4F9F4F2068722E2AE030E07A
:1004B000A4010E947A03A82EA81844C0853729F405
:1004C0002F7EB22E2AE030E025C0F22FF97FBF2E1A
:1004D0008F36C1F018F4883579F0B4C0803719F040
:1004E000883721F0AFC02F2F2061B22EB4FE0DC08F
:1004F0008B2D8460B82E09C024FF0AC09F2F966000
:10050000B92E06C028E030E005C020E130E002C08E
:1005100020E132E0F801B7FE07C06081718182817D
:1005200093810C5F1F4F06C06081718180E090E075
:100530000E5F1F4FA4010E947A03A82EA818FB2D5E
:10054000FF777F2E76FE0BC0372D3E7FA51450F42B
:1005500074FE0AC072FC08C0372D3E7E05C0BA2C5E
:10056000372D03C0BA2C01C0B52C34FF0DC0FE01DD
:10057000EA0DF11D8081803311F4397E09C032FF0C
:1005800006C0B394B39404C0832F867809F0B39463
:1005900033FD13C030FF06C05A2CB31418F4530CAB
:1005A0005B18B32CB31468F4B70180E290E03C8789
:1005B0000E944203B3943C85F5CFB31410F43B186A
:1005C00001C0312C34FF12C0B70180E390E03C87BA
:1005D0000E9442033C8532FF17C031FD03C088E70B
:1005E00090E002C088E590E0B7010CC0832F8678C8
:1005F00059F031FF02C08BE201C080E237FD8DE28D
:10060000B70190E00E944203A51438F4B70180E3DB
:1006100090E00E9442035A94F7CFAA94F401EA0DA5
:10062000F11D8081B70190E00E944203A110F5CF37
:10063000332009F451CEB70180E290E00E944203DA
:100640003A94F6CFF7018681978102C08FEF9FEF32
:100650002C96E2E10C94F403FC010590615070408B
:100660000110D8F7809590958E0F9F1F0895FC017B
:100670006150704001900110D8F7809590958E0FD1
:100680009F1F08950F931F93CF93DF93FB01238147
:1006900021FD03C08FEF9FEF28C022FF16C04681C7
:1006A0005781248135814217530744F4A081B181D9
:1006B0009D012F5F3F4F318320838C9326813781AB
:1006C0002F5F3F4F3783268310C0EB01092F182F70
:1006D0000084F185E02D0995892BE1F68E819F81BB
:1006E00001969F838E83812F902FDF91CF911F9151
:1006F0000F910895FA01AA27283051F1203181F194
:10070000E8946F936E7F6E5F7F4F8F4F9F4FAF4F19
:10071000B1E03ED0B4E03CD0670F781F891F9A1F2C
:10072000A11D680F791F8A1F911DA11D6A0F711DE0
:10073000811D911DA11D20D009F468943F912AE0EC
:10074000269F11243019305D3193DEF6CF010895D4
:10075000462F4770405D4193B3E00FD0C9F7F6CF05
:10076000462F4F70405D4A3318F0495D31FD4052CD
:10077000419302D0A9F7EACFB4E0A6959795879563
:1007800077956795BA95C9F7009761057105089542
:100790009B01AC010A2E06945795479537952795EE
:1007A000BA95C9F7620F731F841F951FA01D089586
:1007B0002F923F924F925F926F927F928F929F9271
:1007C000AF92BF92CF92DF92EF92FF920F931F935F
:1007D000CF93DF93CDB7DEB7CA1BDB0B0FB6F89410
:1007E000DEBF0FBECDBF09942A88398848885F8450
:1007F0006E847D848C849B84AA84B984C884DF80C1
:10080000EE80FD800C811B81AA81B981CE0FD11DA4
:100810000FB6F894DEBF0FBECDBFED010895F8947A
:02082000FFCF08
:100822000D0A001B5B313B31481B5B324A00596F9A
:100832007520656E74657265643A2025730A0D54DD
:1008420079706520696E20746865207370656564CF
:020852003A006A
:00000001FF
